:10080000E4F5A01208967F801208C67F647E00126D
:1008100008767F421208AA7F4D1208AA7F53120859
:10082000AA7F491208AA7F541208AA7FC01208C6DC
:100830007F647E001208767F561208AA7F4912084C
:10084000AA7F521208AA7F541208AA7F551208AA3A
:100850007F411208AA7F4C1208AA7F201208AA7FA3
:0E0860004C1208AA7F411208AA7F420208AA81
:100896007F381208C67F0E1208C67F011208C67F6F
:0408A600060208C678
:1008AA008FA0D28012086EC2827F0A7E000208766A
:0A08C6008FA0C28012086EC28222C9
:08086E00C281D2827F017E00ED
:10087600E4FDFCD3ED9FEC9E5015E4FBFA0BBB00A8
:0F088600010AEB64034A70F50DBD00010C80E41C
:010895002240
:030000000208BA39
:0C08BA00787FE4F6D8FD75810702080085
:00000001FF
