:1000000074FF75A000E501119BE538119BE50E1109
:100010009BE506119B11B57590FFC2972093047460
:100020003111A8209204743211A820910474331164
:10003000A8209004744111A8D297C296209304740A
:100040003411A8209204743511A82091047436113B
:10005000A8209004744211A8D296C29520930474EB
:100060003711A8209204743811A820910474391112
:10007000A8209004744311A8D295C29420930474CC
:100080002A11A8209204743011A82091047423111D
:10009000A8209083744411A8020017F5A0C280C262
:1000A00081D28211B5C28222F5A0D280C281D282D1
:0E00B00011B5C282227BFF7C02DCFEDBFA224D
:00000001FF
